:030000000201A258
:0C01A200787FE4F6D8FD75810802017337
:0F018400759A50759CFD758E1075AF01D2AF2224
:100173001201841201931200031200031200038080
:01018300FE7D
:10011500B56206010800F005000000000000044675
:10012500B56206010800F00000000000000100248F
:10013500B56206010800F002000000000000013170
:10014500B56206010800F003000000000000023857
:10015500B56206010800F001000000000000002A59
:0E016500B5620608060060EA01000100608C29
:10000300E4F508E50890011593F59BE59A645060C3
:10001300FA759A500508E508B410E8E4F59BE59AEB
:10002300645060FA759A50E4F508E5089001159359
:10003300F59BE59A645060FA759A500508E508B493
:1000430010E8E4F59BE59A645060FA759A50E4F57C
:1000530008E50890012593F59BE59A645060FA75CD
:100063009A500508E508B410E8E4F59BE59A645056
:1000730060FA759A50E4F508E50890013593F59B0D
:10008300E59A645060FA759A500508E508B410E8DB
:10009300E4F59BE59A645060FA759A50E4F508E537
:1000A3000890014593F59BE59A645060FA759A5060
:1000B3000508E508B410E8E4F59BE59A645060FA96
:1000C300759A50E4F508E50890015593F59BE59A78
:1000D300645060FA759A500508E508B410E8E4F531
:1000E3009BE59A645060FA759A50E4F508E5089028
:1000F300016593F59BE59A645060FA759A5005087B
:10010300E508B40EE8E4F59BE59A645060FA759A45
:02011300502278
:0E01930000007F2B7E067DCBDDFEDEFCDFFA5A
:0101A100223B
:00000001FF
